:100000000C94340018950000189500001895000015
:10001000189500001895000018950000189500002C
:10002000189500001895000018950000189500001C
:10003000189500001895000018950000189500000C
:1000400018950000189500001895000018950000FC
:1000500018950000189500001895000018950000EC
:1000600018950000189500000FEF0DBF08E00EBFB7
:10007000E0E0F1E000E00193E03019E0F107D9F7AA
:10008000EEE1F0E0EA950083E9F7259A11E011BD71
:1000900010E012BDF89A40B5403009F44AE0042F50
:1000A00010E002D01D9AFBCF0F931F930BE91FE0C6
:1000B00001501040E9F7000000001F910F910F93CD
:1000C0001F930CE91FE001501040E9F70000000009
:1000D00000001F910F910150104089F70000089512
:00000001FF
