:100000000C9409051895000018950000189500003B
:10001000189500001895000018950000189500002C
:10002000189500001895000018950000189500001C
:10003000189500001895000018950000189500000C
:1000400018950000189500000C94CF010C942B0219
:1000500018950000189500001895000018950000EC
:100060001895000018950000AF93BF93ACE0B1E085
:1000700000910B01000F00930B0193F02DF0009104
:100080000B01039500930B0100910B010D9300915F
:100090000A01015000930A0159F7BF91AF910895E9
:1000A00075F3F2CF0F931F930BE91FE0015010403F
:1000B000E9F7000000001F910F910F931F930CE9C7
:1000C0001FE001501040E9F70000000000001F9100
:1000D0000F910150104089F70000089531E044E08D
:1000E00080E0A0E000348A0710F000548A0BAA1FB9
:1000F000A327000F881F000F881F4A9599F7A8179C
:10010000A11F089531E04CE080E090E0A0E0B0E075
:1001100020348A079B0718F020548A0B9B0BAA1FD8
:10012000BB1FA327000F111F221F881F991F000F3D
:10013000111F221F881F991F4A9551F7A817B90749
:10014000A11FB11F089531E048E080E090E0A0E0F9
:10015000B0E010348A079B0718F010548A0B9B0BF1
:10016000AA1FBB1FA327000F111F881F991F000F75
:10017000111F881F991F4A9561F7A817B907A11F7A
:10018000B11F08957630000076310000763200000D
:1001900076330000763400000F93009048011090F1
:1001A000490120904A0130904B01000C111C221C87
:1001B000331C009248011092490120924A0130926A
:1001C0004B01000C111C221C331C000C111C221CA6
:1001D000331C10914801010E10914901111E10911C
:1001E0004A01211E10914B01311E0F910053000E48
:1001F00010E0111E211E311E00924801109249018B
:1002000020924A0130924B010895033208F4089578
:10021000EF93FF930F3349F10B37B9F0109145017C
:100220001031C9F00A3319F1E5E3F1E0109145010D
:10023000E10F10E0F11FE43411E0F10748F40193FD
:10024000E553F140E093450103C000E00093450110
:10025000FF91EF9108950D3709F464C00C3209F451
:1002600049C09ADFFF91EF9108955ED4F1CF00E08D
:10027000009348010093490100934A0100934B0108
:1002800005E10093460101E000934701E5E3F1E059
:1002900010914501E10F10E0F11F00E0008300E143
:1002A00000934501CF93DF93E4E8F1E0C5E3D1E0AB
:1002B00005911991011303C00030D1F716C02ED05B
:1002C00037D0009146010C5F009346010091470131
:1002D0000F4F00934701E83911E0F10738F308E4C4
:1002E0000093460101E000934701DF91CF91FF9118
:1002F000EF910895E0914601F09147010091480186
:10030000019300914901019300914A0101930091E9
:100310004B01019300E000934501A4CF059100300B
:10032000E9F7089500915802016000935802E2CF66
:100330000491003009F008953196FACF0895089598
:10034000789410915302E11710915402F107C9F308
:1003500008950091140159DF089500E00093C5004D
:1003600008E00093C40006E00093C20000E400939C
:10037000C00009E90093C1000EE40093CF0101E041
:100380000093D00101ED0093510201E0009352026D
:1003900001ED0093530201E00093540208950F937E
:1003A0001F930FB70F930091C600009314010091A3
:1003B000C600CFDF05D00F910FBF1F910F91189589
:1003C000EF93FF93E091CF01F091D0010A3061F0FB
:1003D0000D3029F00193EE3C11E0F10728F000E028
:1003E0000083ADDFEEE4F1E0E093CF01F093D001C4
:1003F000FF91EF91089517F4689401C0E894F89480
:100400000F93EF93FF93E0915102F09152023196D6
:10041000E13512E0F10710F0E1EDF1E01091530247
:10042000E11710915402F10709F48ADF0083E09389
:100430005102F09352020091C10005FD06C00091E7
:10044000C10000620093C10010D0FF91EF910F91A5
:100450000EF4789408950F931F930FB70F9305D060
:100460000F910FBF1F910F911895EF93FF93E0919C
:100470005302F091540210915102E117109152026F
:10048000F10789F03196E13512E0F10710F0E1ED66
:10049000F1E000810093C600E0935302F093540210
:1004A000FF91EF9108950091C1000F7D0093C1006D
:1004B00045DFFF91EF910895E0935502F0935602C6
:1004C000FF91EF91EE0FFF1F0591003011F093DFC8
:1004D000FBCF3196F695E795EF93FF93E0915502A8
:1004E000F0915602089500E30093570210E127E2CD
:1004F0000DD018EE23E00AD014E620E007D01AE071
:1005000020E004D000E30E0F76DF089500E3E1174A
:10051000F20720F0E11BF20B0395F9CF003331F421
:1005200010915702103321F4089502C0009357022E
:1005300062DF089500E4B02E50D000E0B02E4DD020
:100540000FE811E001501040E9F700000000000042
:100550000EE0B02E1ED10FE1B02E1BD100E0B02E68
:1005600018D10AE0B02E15D104E0B02E12D101E16D
:10057000B02E0FD10EE0B02E0CD100E0B02E09D17C
:100580000FE811E001501040E9F700000000000002
:10059000089500E0B02E21D000E1B02E1ED001E081
:1005A00010E080DD0895E0935502F0935602FF912C
:1005B000EF91EE0FFF1FB59010E0B11611F0E9D0EA
:1005C000FACF3196F695E795EF93FF93E0915502B8
:1005D000F091560208955A9A02C05A9800C007E254
:1005E00010E001501040E9F70000000000005B9AA5
:1005F00007E210E001501040E9F7000000000000A1
:10060000B7FA0BB107F90BB9B6FA0BB106F90BB98A
:10061000B5FA0BB105F90BB9B4FA0BB104F90BB982
:1006200007E210E001501040E9F700000000000070
:100630005B9807E210E001501040E9F7000000006D
:1006400000000895529A539A549A559A569A579A76
:1006500000E3B02EC2DF0FE910E001501040E9F7CF
:1006600000000000000000E3B02EB7DF0FE910E04B
:1006700001501040E9F700000000000000E3B02E38
:10068000ACDF0FE910E001501040E9F70000000076
:10069000000000E2B02EA1DF0FE910E00150104091
:1006A000E9F700000000000000E2B02E96DF00E84D
:1006B000B02E93DF00E0B02E90DF00E8B02E8DDF8B
:1006C00068DF00E0B02E89DF00ECB02E86DF0895F1
:1006D00000915A02013031F401E000935E0200E023
:1006E00000935F0200915A02023031F40AE0009355
:1006F0005E0200E000935F0200915A02033031F481
:1007000004E600935E0200E000935F0200915A024B
:10071000043031F408EE00935E0203E000935F02C0
:1007200000915A02053031F400E100935E0207E2C5
:1007300000935F0200E00093590200915C02109167
:100740005E02011700915D0210915F020107A0F0A7
:1007500000915C0210915E02011B00935C0200910B
:100760005D0210915F02010B00935D02009159023E
:10077000039500935902E1CFB090590210E3B10EF6
:1007800008D000915A02015000935A0209F0A0CFFC
:100790000895B0925B0210EFB1221DDFB0905B02B2
:1007A000B29410EFB12217DF08950F2F029508D0F1
:1007B0000F2F06D00E2F029503D00E2F01D00895D3
:1007C0000F700A3008F0095F005DB02EE2DF089577
:1007D00073DE5B0071DE7B006FDE22006DDE7B7BF3
:1007E00065317D7D000068DE220066DE3A5B000038
:1007F00063DE220061DE7B7B63317D7D00005CDE99
:1008000022005ADE2C0058DE220056DE7B7B63324B
:100810007D7D000051DE22004FDE2C004DDE2200E7
:100820004BDE7B7B63337D7D000046DE220044DEB1
:100830005D2C000041DE22003FDE7B7B65327D7D4A
:1008400000003ADE220038DE3A5B000035DE22008E
:1008500033DE7B7B63347D7D00002EDE22002CDEC8
:100860002C002ADE220028DE7B7B63357D7D0000A4
:1008700023DE220021DE2C001FDE22001DDE7B7B1A
:1008800063367D7D000018DE220016DE5D2C000040
:1008900013DE220011DE7B7B65337D7D00000CDEE4
:1008A00022000ADE3A5B000007DE220005DE7B7BC9
:1008B00063377D7D000000DE2200FEDD2C00FCDDC4
:1008C0002200FADD7B7B63387D7D0000F5DD2200B0
:1008D000F3DD2C00F1DD2200EFDD7B7B63397D7DD4
:1008E0000000EADD2200E8DD5D7D2C00E5DD7B0017
:1008F000E3DD2200E1DD7B7B61317D7D0000DCDD1D
:100900002200DADD3A5B0000D7DD2200D5DD7B7BFB
:100910006F317D7D0000D0DD2200CEDD2C00CCDDEE
:100920002200CADD7B7B6F327D7D0000C5DD2200A9
:10093000C3DD2C00C1DD2200BFDD7B7B6F337D7DFD
:100940000000BADD2200B8DD5D2C0000B5DD22001C
:10095000B3DD7B7B61327D7D0000AEDD2200ACDD4E
:100960003A5B0000A9DD2200A7DD7B7B6F347D7D33
:100970000000A2DD2200A0DD2C009EDD22009CDD17
:100980007B7B6F357D7D000097DD220095DD2C009F
:1009900093DD220091DD7B7B6F367D7D00008CDD59
:1009A00022008ADD5D2C000087DD220085DD7B7B57
:1009B00061337D7D000080DD22007EDD3A5B00003A
:1009C0007BDD220079DD7B7B6F377D7D000074DD70
:1009D000220072DD2C0070DD22006EDD7B7B6F3823
:1009E0007D7D000069DD220067DD2C0065DD2200D1
:1009F00063DD7B7B6F397D7D00005EDD22005CDD89
:100A00005D7D000059DD5D0057DD0A0055DD0D00FC
:100A100008950FEF0DBF08E00EBFE0E0F1E000E049
:100A20000193E03019E0F107D1F7EEE1FF27EA95F5
:100A300000E00083E1F703EF11E034DB03DE8DDC3F
:100A40007894259A0091580200FF01C06DD000E80B
:100A5000B02EB0925B0210EFB122BFDDB0905B020E
:100A6000B29410EFB122B9DD0091190100935C023C
:100A700000911A0100935D0205E000935A0228DEFE
:100A800006E8B02EB0925B0210EFB122A6DDB09066
:100A90005B02B29410EFB122A0DD00911D01009322
:100AA0005C0200911E0100935D0205E000935A0272
:100AB0000FDE00ECB02EB0925B0210EFB1228DDDA4
:100AC000B0905B02B29410EFB12287DD009121015A
:100AD00000935C020091220100935D0205E0009307
:100AE0005A02F6DD06ECB02EB0925B0210EFB12296
:100AF00074DDB0905B02B29410EFB1226EDD009114
:100B0000250100935C020091260100935D0205E03F
:100B100000935A02DDDD09EF10E0C4DA1D9B02C02C
:100B20002D9801C02D9A8ECF0091150101300091B2
:100B3000160100400091170100400091180100408B
:100B400011F40C94003E009115010A300091160139
:100B5000004000911701004000911801004009F485
:100B600037DE00911901043600911A01004000910E
:100B70001B01004000911C01004009F09EC008E0EC
:100B800000930A0171DA00910C01009319010091A0
:100B90000D0100931A0100E000931B0100931C015A
:100BA00000910E0100931D0100910F0100931E01A1
:100BB00000E000931F0100932001009110010093B9
:100BC0002101009111010093220100E00093230113
:100BD000009324010091120100932501009113015B
:100BE0000093260100E0009327010093280164DCB4
:100BF0007B0062DC220060DC763100005DDC2200DC
:100C00005BDC3A0059DC2200EF93FF93E09119017D
:100C1000F0911A0168DCFF91EF914EDC22004CDC70
:100C20002C004ADC220048DC7632000045DC220041
:100C300043DC3A0041DC2200EF93FF93E0911D0179
:100C4000F0911E0150DCFF91EF9136DC220034DC84
:100C50002C0032DC220030DC763300002DDC220058
:100C60002BDC3A0029DC2200EF93FF93E091210175
:100C7000F091220138DCFF91EF911EDC22001CDC98
:100C80002C001ADC220018DC7634000015DC22006F
:100C900013DC3A0011DC2200EF93FF93E091250171
:100CA000F091260120DCFF91EF9106DC220004DCAC
:100CB0007D0002DC0A0000DC0D00009158020E7F6E
:060CC000009358020895A4
:00000001FF
